{
  "_format": "hh-sol-artifact-1",
  "contractName": "PriceFeedConsumer",
  "sourceName": "contracts/PriceFeedConsumer.sol",
  "abi": [
    {
      "inputs": [
        {
          "internalType": "address",
          "name": "_priceFeed",
          "type": "address"
        }
      ],
      "stateMutability": "nonpayable",
      "type": "constructor"
    },
    {
      "inputs": [],
      "name": "getLatestPrice",
      "outputs": [
        {
          "internalType": "int256",
          "name": "",
          "type": "int256"
        }
      ],
      "stateMutability": "view",
      "type": "function"
    },
    {
      "inputs": [],
      "name": "getPriceFeed",
      "outputs": [
        {
          "internalType": "contract AggregatorV3Interface",
          "name": "",
          "type": "address"
        }
      ],
      "stateMutability": "view",
      "type": "function"
    }
  ],
  "bytecode": "0x60a060405234801561001057600080fd5b50604051610483380380610483833981810160405281019061003291906100cf565b8073ffffffffffffffffffffffffffffffffffffffff1660808173ffffffffffffffffffffffffffffffffffffffff1681525050506100fc565b600080fd5b600073ffffffffffffffffffffffffffffffffffffffff82169050919050565b600061009c82610071565b9050919050565b6100ac81610091565b81146100b757600080fd5b50565b6000815190506100c9816100a3565b92915050565b6000602082840312156100e5576100e461006c565b5b60006100f3848285016100ba565b91505092915050565b60805161036661011d60003960008181607c015261011a01526103666000f3fe608060405234801561001057600080fd5b50600436106100365760003560e01c80638e15f4731461003b5780639e87a5cd14610059575b600080fd5b610043610077565b6040516100509190610157565b60405180910390f35b610061610116565b60405161006e91906101f1565b60405180910390f35b6000807f000000000000000000000000000000000000000000000000000000000000000073ffffffffffffffffffffffffffffffffffffffff1663feaf968c6040518163ffffffff1660e01b815260040160a060405180830381865afa1580156100e5573d6000803e3d6000fd5b505050506040513d601f19601f8201168201806040525081019061010991906102b5565b5050509150508091505090565b60007f0000000000000000000000000000000000000000000000000000000000000000905090565b6000819050919050565b6101518161013e565b82525050565b600060208201905061016c6000830184610148565b92915050565b600073ffffffffffffffffffffffffffffffffffffffff82169050919050565b6000819050919050565b60006101b76101b26101ad84610172565b610192565b610172565b9050919050565b60006101c98261019c565b9050919050565b60006101db826101be565b9050919050565b6101eb816101d0565b82525050565b600060208201905061020660008301846101e2565b92915050565b600080fd5b600069ffffffffffffffffffff82169050919050565b61023081610211565b811461023b57600080fd5b50565b60008151905061024d81610227565b92915050565b61025c8161013e565b811461026757600080fd5b50565b60008151905061027981610253565b92915050565b6000819050919050565b6102928161027f565b811461029d57600080fd5b50565b6000815190506102af81610289565b92915050565b600080600080600060a086880312156102d1576102d061020c565b5b60006102df8882890161023e565b95505060206102f08882890161026a565b9450506040610301888289016102a0565b9350506060610312888289016102a0565b92505060806103238882890161023e565b915050929550929590935056fea2646970667358221220aff77d13d2d6bfeef7a523b8935832a36f97e0213e5ef9072db0abd84108c30c64736f6c63430008140033",
  "linkReferences": {},
  "deployedLinkReferences": {}
}